{
  "contractName": "ExamLog",
  "abi": [
    {
      "inputs": [
        {
          "internalType": "uint256",
          "name": "",
          "type": "uint256"
        }
      ],
      "name": "logs",
      "outputs": [
        {
          "internalType": "string",
          "name": "",
          "type": "string"
        }
      ],
      "stateMutability": "view",
      "type": "function",
      "constant": true
    },
    {
      "inputs": [
        {
          "internalType": "string",
          "name": "log",
          "type": "string"
        }
      ],
      "name": "storeLog",
      "outputs": [],
      "stateMutability": "nonpayable",
      "type": "function"
    },
    {
      "inputs": [],
      "name": "getLogs",
      "outputs": [
        {
          "internalType": "string[]",
          "name": "",
          "type": "string[]"
        }
      ],
      "stateMutability": "view",
      "type": "function",
      "constant": true
    }
  ],
  "bytecode": "0x608060405234801561001057600080fd5b5061073e806100206000396000f3fe608060405234801561001057600080fd5b50600436106100415760003560e01c8063e79899bd14610046578063f2e1d56214610076578063fe290ccb14610092575b600080fd5b610060600480360381019061005b91906103d5565b6100b0565b60405161006d919061051b565b60405180910390f35b610090600480360381019061008b9190610394565b61015c565b005b61009a61019b565b6040516100a791906104f9565b60405180910390f35b600081815481106100c057600080fd5b9060005260206000200160009150905080546100db90610650565b80601f016020809104026020016040519081016040528092919081815260200182805461010790610650565b80156101545780601f1061012957610100808354040283529160200191610154565b820191906000526020600020905b81548152906001019060200180831161013757829003601f168201915b505050505081565b600081908060018154018082558091505060019003906000526020600020016000909190919091509080519060200190610197929190610274565b5050565b60606000805480602002602001604051908101604052809291908181526020016000905b8282101561026b5783829060005260206000200180546101de90610650565b80601f016020809104026020016040519081016040528092919081815260200182805461020a90610650565b80156102575780601f1061022c57610100808354040283529160200191610257565b820191906000526020600020905b81548152906001019060200180831161023a57829003601f168201915b5050505050815260200190600101906101bf565b50505050905090565b82805461028090610650565b90600052602060002090601f0160209004810192826102a257600085556102e9565b82601f106102bb57805160ff19168380011785556102e9565b828001600101855582156102e9579182015b828111156102e85782518255916020019190600101906102cd565b5b5090506102f691906102fa565b5090565b5b808211156103135760008160009055506001016102fb565b5090565b600061032a6103258461056e565b61053d565b90508281526020810184848401111561034257600080fd5b61034d84828561060e565b509392505050565b600082601f83011261036657600080fd5b8135610376848260208601610317565b91505092915050565b60008135905061038e816106f1565b92915050565b6000602082840312156103a657600080fd5b600082013567ffffffffffffffff8111156103c057600080fd5b6103cc84828501610355565b91505092915050565b6000602082840312156103e757600080fd5b60006103f58482850161037f565b91505092915050565b600061040a8383610487565b905092915050565b600061041d826105ae565b61042781856105d1565b9350836020820285016104398561059e565b8060005b85811015610475578484038952815161045685826103fe565b9450610461836105c4565b925060208a0199505060018101905061043d565b50829750879550505050505092915050565b6000610492826105b9565b61049c81856105e2565b93506104ac81856020860161061d565b6104b5816106e0565b840191505092915050565b60006104cb826105b9565b6104d581856105f3565b93506104e581856020860161061d565b6104ee816106e0565b840191505092915050565b600060208201905081810360008301526105138184610412565b905092915050565b6000602082019050818103600083015261053581846104c0565b905092915050565b6000604051905081810181811067ffffffffffffffff82111715610564576105636106b1565b5b8060405250919050565b600067ffffffffffffffff821115610589576105886106b1565b5b601f19601f8301169050602081019050919050565b6000819050602082019050919050565b600081519050919050565b600081519050919050565b6000602082019050919050565b600082825260208201905092915050565b600082825260208201905092915050565b600082825260208201905092915050565b6000819050919050565b82818337600083830152505050565b60005b8381101561063b578082015181840152602081019050610620565b8381111561064a576000848401525b50505050565b6000600282049050600182168061066857607f821691505b6020821081141561067c5761067b610682565b5b50919050565b7f4e487b7100000000000000000000000000000000000000000000000000000000600052602260045260246000fd5b7f4e487b7100000000000000000000000000000000000000000000000000000000600052604160045260246000fd5b6000601f19601f8301169050919050565b6106fa81610604565b811461070557600080fd5b5056fea2646970667358221220f4a2b5761cc37329d762dc189a1c668d1b6cb5c9ef33b44c5185d76440271e0f64736f6c63430008000033",
  "immutableReferences": {},
  "source": "// SPDX-License-Identifier: MIT\r\npragma solidity ^0.8.0;\r\n\r\ncontract ExamLog {\r\n    string[] public logs;\r\n\r\n    function storeLog(string memory log) public {\r\n        logs.push(log);\r\n    }\r\n\r\n    function getLogs() public view returns (string[] memory) {\r\n        return logs;\r\n    }\r\n}\r\n",
  "sourcePath": "D:\\SEM IV\\New folder\\New folder\\projecttttt\\contracts\\ExamLog.sol",
  "compiler": {
    "name": "solc",
    "version": "0.8.0+commit.c7dfd78e.Emscripten.clang"
  },
  "schemaVersion": "3.4.16",
  "updatedAt": "2025-04-07T07:54:40.709Z",
  "networkType": "ethereum",
  "devdoc": {
    "kind": "dev",
    "methods": {},
    "version": 1
  },
  "userdoc": {
    "kind": "user",
    "methods": {},
    "version": 1
  }
}